:100251000322000102082D0000000000000000013F
:1002610021FA013500082500000A00000A000003F8
:100271003E000000C104C103014100C100C102C12F
:0B0281000108360B0B0B0B0B02020CEC
:1003BA00E4FD7F8E1204807D517F801204807D5976
:1003CA007F821204807D237F841204807D807F8E49
:0303DA000204809A
:100114008B118A1289139000021200B3FF75F00A42
:1001240084C454F0FEEF75F00A84E5F04EFD7F8040
:10013400120480AB11AA12A9139000011200B37526
:10014400F00A84C454F0FF9000021200B375F00A60
:1001540084E5F04FFD7F82120480AB11AA12A9132B
:100164009000021200B375F00A84AFF012009A7581
:0E017400F00A84FEC454F04FFD7F8402048024
:10029A00E524540F9000071200F2E524C4540F908D
:1002AA0000061200F2E523540F9000041200F2E552
:1002BA0023C4540F9000031200F2E522540F900059
:0C02CA00011200F2E522C4540F0200E013
:1004C6007F811204EF8F247F831204EF8F237F85B1
:0604D6001204EF8F222248
:10050100E5A0541F4480F5A0A203928053A01F22AE
:10049800E5216010E535B4C80D120501B203152138
:0704A800E4F53522C2042235
:1004AF00E4FF74252FF8E6FE742D2FF8E6B5060647
:0604BF000FBF07EED2049E
:0104C5002214
:1004DC00438E80438901758CFC758A18D2AFD2A9E2
:0304EC00D28C228D
:0F051100E5A0541F44A0F5A075800153A01F2240
:1001820012036CEF606424FE601A14602914604547
:1001920024037058C201C200D202E541B4020280B7
:1001A2000E054122C201D200D202E541B40204E4AA
:1001B200F54122054122C20120001174222541F895
:1001C200067B007A0079221201148006743E2541D2
:1001D200F806C20222D2011202D6EF75F00A848515
:0C01E200F03CEF75F00A84F53B22C201EE
:0101EE0022EE
:10033E00120511752F0A75320A1203BA1204DC1255
:10034E00018220041420020C1204C67B007A00796C
:0E035E002D12029A1204AF80E612049880E17C
:03000B000201EF00
:1001EF00C0E0C0F0C083C082C0D075D000C000C0D6
:1001FF0001C002C003C004C005C006C0073004041C
:10020F000535801D2001117B002000067A00792D15
:10021F00800C7A00792580067B007A0079361204EB
:10022F0031758CFC758A18D007D006D005D004D054
:10023F0003D002D001D000D0D0D082D083D0F0D064
:02024F00E0329B
:1003FB00C297E4FEEF30E004D2A38002C2A3D297EF
:0A040B00C297EFC313FF0EBE08EA0C
:0104150022C4
:10041600E4FFFEEFC313FF30A305430780800353B9
:0A042600077FD297C2970EBE08E9C7
:0104300022A9
:10048000AE07C293C297D2935306FEAF061203FB88
:08049000AF051203FBC2932229
:1004EF00C293C297D2934307011203FB120416C2A1
:0104FF009369
:0105000022D8
:0D052F00C0F9A4B0999282F88090BFFFC679
:0D028C000808010204081020408001100045
:10030B00E5A0541F44E0F5A07580FF53A01FE5A0A6
:10031B00541F44C0F5A074082FF8E6F58053A01FB6
:10032B00E5A0541F44E0F5A0ED90052F93F5805305
:03033B00A01F22DE
:10043100E510B40804E4F5102285108275830012DA
:0B04410000B3FDAF1012030B051022EA
:0E05200000007F097E687D8BDDFEDEFCDFFAC9
:01052E0022AA
:10036C0020B0061205207F012220B1061205207F45
:10037C00022220B2061205207F032220B3061205AA
:07038C00207F04227F002204
:04044C007F057E00AA
:10045000EF1FAA0670011E4A600BE4FDEDC3940C69
:0504600050EE0D80F7D5
:010465002274
:0203DD00A9076E
:1003DF00E4FBC294E913929412044CD294E9C31330
:0C03EF00F90BBB08ED7F057E00020450F6
:10046600E4FBC294ECC313FCD2943094034304809F
:0904760012044C0BBB08EBAF04AF
:01047F00225A
:10039300C205D2947F0C7E00120450C2947F507E1B
:1003A30000120450D2947F0A7E00120450A2949249
:0603B3000512044CA20536
:0103B9002221
:1002D6001203937FCC1203DD7F441203DD7F647E1D
:1002E600001204501203937FCC1203DD7FBE12036B
:1002F600DD120466A907120466EFC454F0FFE9C4D0
:04030600540F420747
:01030A0022D0
:0300000002000EED
:0C000E00787FE4F6D8FD758141020055B2
:10009A00BB010689828A83E0225002E722BBFE0264
:0900AA00E32289828A83E4932297
:1000B300BB010CE58229F582E5833AF583E0225002
:1000C30006E92582F8E622BBFE06E92582F8E2224C
:0D00D300E58229F582E5833AF583E4932266
:1000E000BB010689828A83F0225002F722BBFE01FF
:0200F000F322F9
:1000F200F8BB010DE58229F582E5833AF583E8F044
:10010200225006E92582C8F622BBFE05E92582C8EF
:02011200F222D7
:10001A0002033EE493A3F8E493A34003F68001F2BB
:10002A0008DFF48029E493A3F85407240CC8C333E7
:10003A00C4540F4420C8834004F456800146F6DFB6
:10004A00E4800B0102040810204080900251E47EF3
:10005A00019360BCA3FF543F30E509541FFEE493AB
:10006A00A360010ECF54C025E060A840B8E493A372
:10007A00FAE493A3F8E493A3C8C582C8CAC583CA9D
:10008A00F0A3C8C582C8CAC583CADFE9DEE780BE55
:010299000064
:00000001FF
